:020000040800F2
:10000000200400209D010008BD0300083103000802
:10001000B9030008510200087F0D0008000000002D
:10002000000000000000000000000000E5070008DC
:1000300055020008000000009B040008FD080008AD
:10004000B7010008B7010008B7010008B7010008B0
:10005000B7010008B7010008B7010008B7010008A0
:10006000B7010008B7010008B7010008B701000890
:10007000B7010008B7010008B7010008B701000880
:10008000B7010008B7010008B7010008B701000870
:10009000B7010008B7010008B7010008B701000860
:1000A000B7010008B7010008B7010008B701000850
:1000B00099090008B7010008B7010008B701000856
:1000C000B7010008B7010008B7010008B701000830
:1000D000B7010008C10A0008B7010008B70100080D
:1000E000B7010008B7010008B7010008B701000810
:1000F000B7010008B7010008B7010008B701000800
:10010000B7010008B7010008B7010008B7010008EF
:10011000B7010008B7010008B7010008B7010008DF
:10012000B7010008B7010008B7010008B7010008CF
:10013000B7010008B7010008B7010008B7010008BF
:10014000B7010008B7010008B7010008B7010008AF
:10015000B7010008B7010008B7010008B70100089F
:10016000B7010008B7010008B7010008B70100088F
:10017000B7010008B7010008B7010008B70100087F
:10018000B7010008B7010008DFF80CD000F018F83C
:10019000004800477D0E00082004002006488047E4
:1001A00006480047FEE7FEE7FEE7FEE7FEE7FEE75C
:1001B000FEE7FEE7FEE7FEE73109000889010008D7
:1001C000064C074D06E0E06840F0010394E80700A4
:1001D00098471034AC42F6D3FFF7DAFFAC0E0008B4
:1001E000CC0E00081CB50121202000F057F94FF477
:1001F0008070009003208DF8050001208DF8040028
:1002000000208DF8060002208DF80700694602489C
:1002100000F021F81CBD00000014024010B500F0F1
:100220006DF900F0A9F8FFF7DDFFA82000F068FBEA
:1002300000F080F800F01DF94FF4E131034800F0C0
:100240005BFC00F003F900F0C3FB10BD001001409F
:1002500000BFFEE77047F0B50A46002100230024E6
:1002600000BF3DE0012505FA01F3156805EA030426
:100270009C4234D105684F000326BE40B54305605B
:1002800015794E00B5400668354305601579012D96
:1002900002D01579022D16D185684F000326BE4085
:1002A000B543856055794E00B54086683543856015
:1002B000456801268E40B5434560456896798E4075
:1002C000B6B235434560C5684F000326BE40B5430E
:1002D000C560D5794E00B540C6683543C560491C38
:1002E0001029BFD3F0BDF0B5002300244D07ED0E5B
:1002F00002FA05F3CE1000F1200555F826504E07FE
:10030000F70E0F26BE40B543CF1000F1200646F889
:100310002750CE1000F1200555F8265045EA030479
:10032000CE1000F1200545F82640F0BD018370474E
:1003300000BFFEE71CB50121112000F0AFF801203D
:10034000009000208DF8040001208DF80700694618
:100350000748FFF780FF1C20009000208DF8040064
:1003600001208DF8070069460248FFF774FF1CBDA5
:1003700000000240001002401CB50121202000F0C6
:100380008DF84FF4C060009003208DF80500012027
:100390008DF8040000208DF8060001208DF807007C
:1003A00069460448FFF757FF4FF4C0610148FFF763
:1003B000BDFF1CBD0014024000BFFEE770470000F7
:1003C00070B5002100230F22C4781CB3174C246899
:1003D00004F4E064C4F5E064C4F30721C1F104044B
:1003E000E3B20A4144789C40E1B28478144021434E
:1003F0000C07210E0E4C05786155047804F01F059A
:100400000124AC4005786D11AD0005F1E025C5F87B
:10041000004109E0047804F01F050124AC40054DBB
:100420000678761145F8264070BD00000CED00E01E
:1004300000E400E080E100E002490143024A11606B
:10044000704700000000FA050CED00E008B54FF41D
:10045000A060FFF7F1FF1C208DF8000001208DF84F
:1004600003008DF801008DF802006846FFF7A8FF31
:1004700008BD08B54FF4A060FFF7DEFF25208DF81A
:10048000000001208DF803008DF8010002208DF896
:1004900002006846FFF794FF08BD704729B1064A7D
:1004A00012680243044B1A6004E0034A1268824354
:1004B000014B1A60704700003038024029B1064AEB
:1004C00012680243044B1A6004E0034A1268824334
:1004D000014B1A60704700004038024029B1064ABB
:1004E00012680243044B1A6004E0034A1268824314
:1004F000014B1A60704700004438024008B500F014
:100500003FF8012000F00EF900F050F9012834D135
:10051000002000F027F9022000F03CF9002000F054
:10052000F5F84FF4A05000F005F94FF4805000F0BA
:100530000DF9072004234FF4A87219210090180523
:1005400000F016F9012000F00DF900BF392000F08D
:10055000BDF80028FAD00948006820F003000749D8
:1005600008600846006840F00200086000BF0348C9
:10057000006800F00C000828F9D108BD08380240D6
:100580001448006840F00100124908600020114939
:10059000083108600F4800680F4908400D4908609D
:1005A0000E48091D08600E480A49843108600B484E
:1005B0001038091D08600748006820F480200549AC
:1005C0000860002003490C31086002498C31086042
:1005D0007047000000380240FFFFF6EA10300024A8
:1005E00000300020F0B50021002200240225002662
:1005F0000223324F3F6807F00C0121B1042905D0D6
:10060000082937D105E02E4F076036E02D4F0760EF
:1006100033E02A4F3F1F3F68C7F38056274F3F1FE5
:100620003F6807F03F036EB1264FB7FBF3F7DFF8E3
:100630008CC0ACF1040CDCF800C0CCF3881C07FBC8
:100640000CF40CE01E4FB7FBF3F7DFF870C0ACF111
:10065000040CDCF800C0CCF3881C07FB0CF4174F2B
:100660003F1F3F68C7F301477F1C7D00B4FBF5F7D0
:10067000076002E0124F076000BF00BF0F4F3F68E6
:1006800007F0F0010909104F7A5C0768D74047600E
:100690000A4F3F6807F4E051890A0B4F7A5C4768BC
:1006A000D7408760054F3F6807F46041490B064F0C
:1006B0007A5C4768D740C760F0BD00000838024048
:1006C0000024F40000127A000C00002010B501464E
:1006D0000022002300204A11012A02D10A4C23687B
:1006E00008E0022A03D1084C7034236802E0064C6B
:1006F0007434236801F01F02012494401C400CB1A3
:10070000012000E0002010BD00380240014600201A
:10071000034A106820F0F0000843106070470000A2
:10072000083802400021024A1170114608707047D3
:100730000238024001460020034A106820F4E050CD
:10074000084310607047000008380240014600204E
:10075000034A106820F4604040EAC100106070470E
:10076000083802400149086670470000000047420F
:1007700070B5049C41EA82150126C6EB530645EA92
:100780000645054345EA0465014E356070BD00002D
:100790000438024001460020034A106820F003009C
:1007A00008431060704700000838024038B5002048
:1007B00000900024002500BF3120FFF787FF054689
:1007C0000098401C00900098B0F5A04F01D0002D7B
:1007D000F2D03120FFF77AFF08B1012400E00024B5
:1007E000204638BD704700000CB5002001900090F5
:1007F0003448006840F480303249086000BF314816
:10080000006800F4003000900198401C01900098AE
:1008100018B90198B0F5A04FF1D12A48006800F44A
:10082000003010B10120009001E0002000900098FD
:10083000012846D123484030006840F080502149CB
:10084000403108602048006840F440401E4908607C
:100850001C48083000681B490831086008460068D9
:1008600040F4004008600846006840F4A05008606A
:100870001648091F0860081F006840F08070091FB3
:10088000086000BF0F48006800F000700028F9D031
:1008900040F205700E4908600A480830006820F0F0
:1008A00003000849083108600846006840F002006B
:1008B000086000BF03480830006800F00C000828FA
:1008C000F8D10CBD003802400070004019544007B8
:1008D000003C0240042808D14FF0E021096941F0B2
:1008E00004014FF0E022116107E04FF0E0210969B7
:1008F00021F004014FF0E0221161704770470000C1
:1009000010B504466FF00400FFF7E4FFE11704EBB5
:100910005171C910044A1160104600684FF47A7191
:1009200048430249086010BD040000200800002070
:1009300010B51548006840F470001349086013486A
:10094000006840F001001149086000200F4908319B
:1009500008600E4800680E4908400C4908600D48C0
:10096000091D0860081F006820F48020091F086026
:10097000002006490C310860FFF736FF4FF0006099
:1009800001498039086010BD88ED00E00038024060
:10099000FFFFF6FE1030002410B540F225510A4842
:1009A00000F02BF901280ED140F22551064800F045
:1009B000FCF8054800F0DAF90449087008460178A7
:1009C000014800F0D8F910BD0010014000000020DF
:1009D0000EB501210846FFF771FD44F29F10ADF8F6
:1009E00000000020ADF8020042F20F7001900020DC
:1009F000ADF8080069464FF0804000F01FF8012272
:100A00001146900700F011F80121880700F001F865
:100A10000EBD21B1028842F00102028004E002888A
:100A20004FF6FE731A40028070471AB183890B4358
:100A3000838102E083898B4383817047002202888F
:100A4000184B98420ED0184B98420BD0B0F1804F03
:100A500008D0164B984205D0154B984202D0154B42
:100A6000984204D14FF68F731A404B881A43124BA9
:100A7000984207D0114B984204D04FF6FF431A40DA
:100A80000B891A4302804B68C3620B880385054BB0
:100A9000984202D0044B984201D18B7A03860123FD
:100AA00083827047000001400004014000040040C0
:100AB00000080040000C00400010004000140040FE
:100AC00010B540F225510A4800F097F801280ED1E0
:100AD00040F22551064800F068F8054800F046F954
:100AE0000449087008460178014800F044F910BD37
:100AF000001001400000002030B587B005460C46CC
:100B000001210846FFF7CAFC01211020FFF7E6FC8F
:100B1000072209211E48FFF7E6FB07220A211C488D
:100B2000FFF7E1FB4FF4C060059002208DF818003C
:100B300003208DF8190000208DF81A0001208DF88F
:100B40001B0005A91248FFF786FB01940020ADF8B1
:100B50000800ADF80A00ADF80C000C20ADF80E004E
:100B60000020ADF8100001A9284600F095F84021BA
:100B7000284600F011F8012240F22551054800F006
:100B800066F80121284600F01FF807B030BD0000CC
:100B9000000002400010014001F40072B2F5007F35
:100BA00000D100BFCA430280704710B50022002365
:100BB00040F66A14A14200D100BF0A1201249440F9
:100BC000A3B2DC43048010BD21B1828942F40052FB
:100BD000828104E082894DF6FF731A40828170475A
:100BE00002460020B1F5007F00D100BF13880B4002
:100BF0000BB1012000E00020704770B502460024D0
:100C000000230025002040F66A16B14200D100BF43
:100C1000C1F3421501F01F03012606FA03F3012D6B
:100C200002D19689334006E0022D02D1168A334064
:100C300001E0968A33400C12012606FA04F4168865
:100C4000344013B10CB1012000E0002070BDF0B5BC
:100C50000346002400260025002040F66A17B9420A
:100C600000D100BF1846C1F3421401F01F0601274E
:100C700007FA06F5012C01D10C3004E0022C01D159
:100C8000103000E014301AB107682F43076002E00B
:100C90000768AF430760F0BD2DE9FF4705460E46E4
:100CA0000024A14600BFA046B08900B100BF2C8A35
:100CB00024F44054F08804432C82AC8941F20C6047
:100CC0008443B08831890843718908430443AC8167
:100CD000AC8A24F44074B0890443AC826846FFF7C0
:100CE00081FC2048854202D01F48854202D1DDF8B0
:100CF0000C9001E0DDF80890A88900F4004040B1B4
:100D000009EBC90000EB091031684900B0FBF1F7AD
:100D100007E009EBC90000EB091031688900B0FB5E
:100D2000F1F76420B7FBF0F004012009642101FB16
:100D30001078A88900F4004040B1322000EBC800D0
:100D4000B0FBF1F000F00700044308E0322000EBB4
:100D500008106421B0FBF1F000F00F0004432C8177
:100D6000BDE8FF870010014000140140014688885B
:100D7000C0F308007047C1F308028280704700BFCB
:100D8000FEE770B505460C4604E014F8011B284642
:100D900000F004F820780028F7D170BD70B5044643
:100DA0000D4629462046FFF7E6FF00BF40210348D5
:100DB000FFF716FF0028F9D070BD000000100140B9
:100DC000014A024900F013B8590E00081C00002027
:100DD00002E008C8121F08C1002AFAD17047704704
:100DE000002001E001C1121F002AFBD170472DE94C
:100DF000F04116460F460446002503E03946B04749
:100E0000641C6D1C20780028F8D12846BDE8F081CC
:100E10000146104A12684A434FF0E0235A6100220B
:100E20009A611A46126942F001021A6100BF4FF03E
:100E3000E022106900F001021AB100F48032002AA9
:100E4000F5D000224FF0E0239A611A4612691A6128
:100E5000704700000800002070B504460D46A1B29E
:100E60000548FFF788FF00BF40210348FFF7B8FEA1
:100E70000028F9D0204670BD00100140FFF7CEF9E0
:100E80000AE006A0FFF79CFF05A10748FFF779FFDE
:100E90004FF47A70FFF7BCFFF3E700006800000032
:100EA000776F726C640A000000100140CC0E0008DD
:100EB0000000002020000000D00D0008EC0E00080B
:100EC0002000002000040000E00D000800000000E9
:100ED0000000000000000000000000000102030408
:0C0EE000010203040607080900000000DE
:040000050800018965
:00000001FF
